000ALFA TRANSPORTES LTDA              GARTHEN INDUSTRIA E COMERCIO DE MAQ0609251602COB060916020                                                                           
350COBRA060916020                                                                                                                                                         
35182110818000121ALFA TRANSPORTES LTDA                                                                                                                                    
352NAVEGANTES00  00063940980609202520092025000000000015772   00000000000000000000000000000000000000000000000000000Banco Safra                        67000000581982200I   
353NAVEGANTES0    7101267                                                                                                                                                 
3542  0094567903092025000808500000000043886382981721000194                                                                                                                
3550001000000000015772                                                                                                                                                    